:100000008EC0A8C0A7C0A6C0A5C0A4C0A3C0A2C0DF
:10001000A1C0A0C0B4C09EC09EC09CC09BC0000038
:1000200000000001010101010101010102020202BF
:100030000202020202030303030303030304040492
:100040000404040505050505060606060607070758
:1000500007080808080909090A0A0A0A0B0B0B0C09
:100060000C0C0D0D0D0E0E0F0F0F101011111112A3
:100070001213131414151516161717181819191A20
:100080001A1B1C1C1D1D1E1F1F2020212222232481
:10009000252526272728292A2B2B2C2D2E2F2F30BC
:1000A000313233343536363738393A3B3C3D3E3FD2
:1000B0004041424344464748494A4B4C4D4F5051BA
:1000C0005253555657585A5B5C5E5F606263646674
:1000D00067696A6C6D6E707173747678797B7C7EFB
:1000E0008081838486888A8B8D8F91929496989A4A
:1000F0009B9D9FA1A3A5A7A9ABADAFB1B3B5B7B960
:10010000BBBDBFC1C4C6C8CACCCFD1D3D6D8DADC38
:10011000DFE1E4E6E8EBEDF0F2F5F7FAFCFF11249D
:100120001FBECFE5D2E0DEBFCDBF20E0A4E6B0E049
:1001300001C01D92AD36B207E1F710E0A0E6B0E0D5
:10014000E8E2F6E002C005900D92A436B107D9F7B7
:100150007CD168C255CF1F920F920FB60F92112417
:100160008F9310BC85B78F7D85BF81B5886181BDB8
:1001700011BC8F910F900FBE0F901F9018951F927A
:100180000F920FB60F9211248F939F938091690065
:1001900090916A00019690936A0080936900B39BE6
:1001A00006C08BB5863948F48BB58F5F05C08BB51B
:1001B000882319F08BB581508BBD9F918F910F9043
:1001C0000FBE0F901F90189585B7877E85BF85B7A6
:1001D000806285BF889585B78F7D85BF08958CB572
:1001E00081688CBD8AB582608ABD83B7816083BF18
:1001F00089B7806189BF8CB58E778CBD8FEF89BD43
:10020000089587B5826087BD10926A0010926900D8
:100210008091690090916A00089714F4D5DFF8CFB7
:1002200087B5811102C0D0DFFBCF87B5846087BD61
:100230008CB5826E8CBD80B7806680BF80B78160D0
:1002400080BF8FEF8DBD8CB58C608CBD8CB58D77EC
:100250008CBD87B3826187BBBB98089580B58F60E2
:1002600080BD8AB58F708ABD80B78F7C80BF8CB50A
:100270008F7C8CBD8CB583688CBD85B7806385BF52
:1002800084B7877F84BF81B5876081BD81B5806475
:1002900081BD889585B78F7D85BF10BC8CB58E7F5D
:1002A0008CBD9DDF10926A001092690080916900F8
:1002B00090916A00883E934014F486DFF7CF8CB5A6
:1002C0008F778CBD0895F8942CE32BBDB3990196DC
:1002D00036B384369105CCF3789408950F931F9329
:1002E000CF93DF931EBC1BBCC82FD0E0C017D10733
:1002F00024F0B4DF0F5F1F4FF9CF71DF82DF109260
:100300006A00109269008091690090916A008436B9
:100310009105CCF359DFDF91CF911F910F91D3CF8E
:100320001BD16CE271E0A7D08C599F4F089514D176
:1003300068EB7BE0A0D088519C4F08950DD16FEF02
:1003400070E099D00895825E9F4FFC0184918EBD2C
:100350000895CF938091680080FF18C08E7F8260DF
:10036000809368009091670080916600981728F04C
:1003700081E08093660010926700D2DF90936C005A
:1003800080936B00DBDF8093650059C0982F9C70D1
:100390009C3071F4909167009F5F90936700877F16
:1003A0008B7F20916600921708F446C0806145C09B
:1003B000982F9A709A3031F4857F8460809368001A
:1003C000AFDF21C081FF0DC0C0916400CF5FC0933B
:1003D00064008C2F90E0B7DF80916500C8132FC0B8
:1003E0000CC082FF15C0C0916400C150C09364006E
:1003F0008C2F90E0A8DFC13011F5809168008860F3
:100400008093680094DF90936C0080936B0017C01A
:1004100084FF15C010926A001092690080916900F3
:1004200090916A008436910514F4CEDEF7CF83E014
:1004300055DF809168008F7E816080936800109204
:100440006A0010926900CF9108957894C8DED9DED1
:10045000809168008160809368007BDF2091690053
:1004600030916A0080916B0090916C0028173907D9
:10047000A4F7AADEF3CF97FB072E16F4009406D05C
:1004800077FD08D00BD007FC05D03EF49095819500
:100490009F4F0895709561957F4F0895AA1BBB1BD0
:1004A00051E107C0AA1FBB1FA617B70710F0A61B74
:1004B000B70B881F991F5A95A9F780959095BC0195
:1004C000CD0108958F929F92AF92BF92CF92DF920B
:1004D000EF92FF92CF93DF93EC01688179818A815B
:1004E0009B81611571058105910521F464E279ED27
:1004F0008BE597E02DE133EF41E050E055D0490125
:100500005A0127EA31E440E050E035D06B017C012C
:100510002CEE34EF4FEF5FEFC501B4012CD0DC01BE
:10052000CB018C0D9D1DAE1DBF1DB7FF03C00197F4
:10053000A109B04888839983AA83BB839F77DF9101
:10054000CF91FF90EF90DF90CF90BF90AF909F90B2
:100550008F900895B7DF089580E690E0B3DF0895A7
:10056000A0E0B0E08093600090936100A0936200EF
:10057000B09363000895EE27FF27AA27BB2708C082
:10058000A20FB31FE41FF51F220F331F441F551F77
:10059000969587957795679598F37040A9F700979A
:1005A00099F7BD01CF010895052E97FB16F400942D
:1005B0000FD057FD05D014D007FC02D046F408C078
:1005C00050954095309521953F4F4F4F5F4F08957F
:1005D00090958095709561957F4F8F4F9F4F0895AF
:1005E000A1E21A2EAA1BBB1BFD010DC0AA1FBB1F37
:1005F000EE1FFF1FA217B307E407F50720F0A21BA9
:10060000B30BE40BF50B661F771F881F991F1A9415
:1006100069F760957095809590959B01AC01BD013F
:08062000CF010895F894FFCF0B
:0406280001000000CD
:00000001FF
